S01300004932435F73656E736F72732E73726563E7
S11300000C94A7000C94C4000C94C4000C94C40079
S11300100C94C4000C94C4000C94C4000C94C4004C
S11300200C94C4000C94C4000C94C4000C94C4003C
S11300300C94C4000C94C4000C94C4000C94C4002C
S11300400C94C4000C94C4000C94C4000C94C4001C
S11300500C94C40000407A10F35A00A0724E1809A0
S11300600010A5D4E80000E87648170000E40B541B
S1130070020000CA9A3B000000E1F50500008096EA
S11300809800000040420F000000A086010000001C
S1130090102700000000E8030000000064000000D6
S11300A000000A00000000000100000000002C769F
S11300B0D888DC674F0823DFC1DFAE59E1B1B796BA
S11300C0E5E3E453C63AE651997696E8E6C2842617
S11300D0EB898C9B62ED407C6FFCEFBC9C9F40F2F3
S11300E0BAA56FA5F490055A2AF75C936B6CF9676F
S11300F06DC11BFCE0E40D47FEF520E6B500D0ED34
S1130100902E0300943577050080841E080000209B
S11301104E0A000000C80C333333330F986E128339
S11301201141EF8D2114893BE65516CFFEE6DB180D
S1130130D1844B381BF77C1D901DA4BBE4242032D2
S113014084725E228100C9F124ECA1E53D271124CB
S11301501FBECFE5D8E0DEBFCDBF11E0A0E6B0E022
S1130160E6E9F6E202C005900D92AE35B107D9F783
S113017021E0AEE5B1E001C01D92A93FB207E1F76D
S11301800E9434060C9449130C9400001ABA87E8B0
S113019086B980E487B9089597B18F70982B97B981
S11301A0369A349BFECF8AE18A95F1F700C024B1D8
S11301B085B190E0982F8827820F911D08959F990B
S11301C0FECF88E140E050E0BA01AE9A0000440F4F
S11301D0551F661F771FAE9800009F9B04C04F5F9A
S11301E05F4F6F4F7F4F815081F7689415F8769574
S11301F06795579547951694D1F7CB01BA01805866
S113020020916601222349F020E0AE9A0000AE98C6
S11302102F5F309166012317C0F30895CF92DF92C8
S1130220EF92FF920E94DF000E94CD0B6B017C01D4
S113023060915E0170915F01809160019091610114
S11302400E94CF0B9B01AC01C701B6010E94B30A07
S1130250FF90EF90DF90CF9008950E940E012091BF
S113026062013091630140916401509165010E94E3
S1130270250B08958038910521F481E0809366016F
S113028010C08034910521F483E08093660109C095
S1130290809721F482E08093660103C081E080931B
S11302A06601AE980E94DF000895CF92DF92EF922C
S11302B0FF926B017C0120E030E040E85FE30E94A4
S11302C0200B882344F40F2EC12CD12CF0E8EF2E00
S11302D0FFE3FF2EF02DC0926201D0926301E09201
S11302E06401F0926501FF90EF90DF90CF90089544
S11302F08F929F92AF92BF92CF92DF92EF92FF9232
S11303000F931F934A015B0168017901A69AAE9885
S1130310A79890E00E943A01C501B4010E945501DA
S1130320C0925E01D0925F01E0926001F09261019F
S11303301F910F91FF90EF90DF90CF90BF90AF90FF
S11303409F908F900895CF93DF93C82F8EE40E94DF
S11303508D02DC2FD07F8091670184608D2B0E94F9
S1130360B1028FEC97E00197F1F700C00000809193
S113037067018D2B0E94B1028FEC97E00197F1F792
S113038000C0000090E1C99FE00111248091670141
S113039084608C2B0E94B1028FEC97E00197F1F7F7
S11303A000C00000809167018C2B0E94B1028FEC89
S11303B097E00197F1F700C000000E94AB02DF91C3
S11303C0CF910895CF93C82F8EE40E948D02C07FF1
S11303D08091670184608C2B0E94B1028FEC97E0BE
S11303E00197F1F700C00000809167018C2B0E94F7
S11303F0B1028FEC97E00197F1F700C000000E9472
S1130400AB02CF9108958093670180E30E94E201DB
S113041080E30E94E20180E30E94E20180E20E9404
S1130420E2018FE39CE90197F1F700C0000088E244
S11304300E94A3018CE00E94A30186E00E94A30114
S113044081E00E94A3010895CF93DF93C82F8EE427
S11304500E948D02DC2FD07F80916701D82B8D2FD5
S113046085600E94B102DA7F809167018D2B0E9422
S1130470B10280E1C89F90011124C0916701C56059
S1130480C22B8C2F0E94B1022C2F2A7F80916701EE
S1130490822B0E94B1020E94AB02DF91CF9108959A
S11304A0623031F0633031F0613029F4805C03C094
S11304B08C5E01C08C5A80680E94A301089581E07B
S11304C00E94A30108951F93CF93DF93EC0110E0E2
S11304D007C0FE01E80FF91F80810E9424021F5FFC
S11304E0812F90E0FE0101900020E9F73197EC1B89
S11304F0FD0B8E179F0768F3DF91CF911F9108952D
S1130500CF93DF93EC01862F642F0E945002CE011B
S11305100E946302DF91CF91089594EA96BF06B6D4
S113052007FEFDCF91B1987F983011F0903179F4A6
S113053083B984E886BF06B607FEFDCF91B1987FE4
S1130540983139F081E0903429F480E0089581E015
S1130550089580E0089584E986BF06B604FCFDCFC3
S1130560089583B984E886BF06B607FEFDCF91B12E
S1130570987F81E0983209F480E008958FEF87BB7B
S113058080EF87BB8FEC97E00197F1F700C0000084
S11305908FE088BB8FEC97E00197F1F700C0000073
S11305A00895382F86B3803FB9F086B327B32095DA
S11305B027BBEFECF7E03197F1F700C0000028B358
S11305C0209528BBEFECF7E03197F1F700C000006D
S11305D096B3982B909501C090E027B3209527BB44
S11305E028B3209528BB81E0931380E008958F926F
S11305F09F92AF92BF92EF92FF920F931F93CF936C
S1130600DF931616170604F57B018C010E5F1F4F4E
S1130610C1E0D0E0812C912C5401F80161917191D9
S11306208F01072E000C880B990B0E94CF0B9B01A6
S1130630AC01C501B4010E94B40A4B015C012196CE
S1130640EC16FD0654F703C0812C912C5401C5010E
S1130650B401DF91CF911F910F91FF90EF90BF9064
S1130660AF909F908F9008958F929F92AF92BF9278
S1130670EF92FF920F931F93CF93DF9316161706F3
S11306803CF57B018C010E5F1F4FC1E0D0E0812C53
S1130690912C5401F801819191918F018C9FB001AB
S11306A08D9F700D9C9F700D1124072E000C880BDC
S11306B0990B0E94CF0B9B01AC01C501B4010E94B0
S11306C0B40A4B015C012196EC16FD061CF703C02D
S11306D0812C912C5401C501B401DF91CF911F915C
S11306E00F91FF90EF90BF90AF909F908F900895DF
S11306F04F925F926F927F928F929F92AF92BF922E
S1130700CF92DF92EF92FF92CF93DF93CDB7DEB714
S113071060970FB6F894DEBF0FBECDBF3C016A01EF
S11307207B0120E030E040E85FE3C701B6010E94AE
S1130730B40A6D837E838F83988720E030E040E0A5
S11307405FE30E94840C69837A838B839C83C70153
S1130750B6010E94970B4B015C01C3010E94F70292
S1130760A70196010E94250B69877A878B879C874E
S1130770B401C3010E9434034B015C0129813A8115
S11307804B815C81C701B6010E94840C2B013C01A2
S11307909B01AC0169857A858B859C850E94840CBC
S11307A09B01AC01C501B4010E94B30A4B015C0179
S11307B0A7019601C701B6010E94B40A20E030E007
S11307C040E85FE30E94B40A6D877E878F87988B29
S11307D02D813E814F815885C701B6010E94840C4A
S11307E09B01AC016D857E858F8598890E94840C60
S11307F020E030E040EC50E40E94250B6B017C01CA
S1130800A301920169817A818B819C810E94840C6D
S11308109B01AC01C701B6010E94B30A9B01AC0164
S1130820C501B4010E94250B9B01AC0160936C01CE
S113083070936D0180936E0190936F0169817A8149
S11308408B819C810E94840C9B01AC0169857A8513
S11308508B859C850E94B30A60936801709369013B
S113086080936A0190936B0160960FB6F894DEBF93
S11308700FBECDBFDF91CF91FF90EF90DF90CF906F
S1130880BF90AF909F908F907F906F905F904F90AC
S113089008954F925F926F927F928F929F92AF9240
S11308A0BF92CF92DF92EF92FF920F931F93CF9359
S11308B0DF93CDB7DEB7CC56D1090FB6F894DEBFBF
S11308C00FBECDBF18861F827E0129E0E20EF11C07
S11308D06E018DE6C80ED11C870180E090E00E9475
S11308E0CC00F801819391938F014AE0BE016F5FC0
S11308F07F4F0E94B70DFFEF20E782E0F1502040C8
S11309008040E1F700C000000C151D0531F740E000
S113091050E068E472E4CE0107960E9478034090A8
S11309206C0150906D0160906E0170906F01809029
S1130930680190906901A0906A01B0906B01C12C8C
S1130940D12C00E010E0B8016E5F7F4F072E000C41
S1130950880B990B0E94CF0BA30192010E94840C77
S1130960A50194010E94B40A0E94970B0F5F1F4FC8
S1130970F701419151917F01641775077CF4349715
S113098020813181241735074CF4F701208131810E
S1130990241735071CF4FFEFCF1ADF0A02331105C1
S11309A091F6C601880F991FC80ED91ECC0CDD1C08
S11309B02DE3C216D1041CF08C2D9D2D02C088E4B9
S11309C090E0C459DF4F0FB6F894DEBF0FBECDBF21
S11309D0DF91CF911F910F91FF90EF90DF90CF9017
S11309E0BF90AF909F908F907F906F905F904F904B
S11309F008950F931F930E94C6000E94BE0281B304
S1130A00806E81BB82B3807E82BB80E00E94030241
S1130A1060E875E280E090E00E946B0A0CEA15E061
S1130A2020E830E046EA55ED63E475E480E80E948E
S1130A3078011F910F91089588E181BD88E081BDFF
S1130A40FFCF8091860190918701A0918801B09198
S1130A508901CC97A105B10509F046C080917001C8
S1130A6090917101A0917201B09173010196A11D41
S1130A70B11D8093700190937101A0937201B093A2
S1130A8073011092860110928701109288011092CE
S1130A9089010E945F028091700190917101A0917F
S1130AA07201B0917301CC97A105B105E9F480916D
S1130AB0740190917501A0917601B091770101962E
S1130AC0A11DB11D8093740190937501A0937601CB
S1130AD0B09377011092700110927101109272011B
S1130AE0109273010E945F0240E060E086E690E0AD
S1130AF00E94800241E069E086E291E00E94800267
S1130B008091740190917501A0917601B091770163
S1130B104AE067EF71E00E94B70D40E067E087EFBD
S1130B2091E00E94800240E069E087EA90E00E9440
S1130B3080028091700190917101A0917201B09135
S1130B4073014AE067EF71E00E94B70D40E06AE08C
S1130B5087EF91E00E94800240E06CE087EA90E039
S1130B600E9480028091860190918701A091880162
S1130B70B09189014AE067EF71E00E94B70D40E04F
S1130B806DE087EF91E00E94800208958F929F921A
S1130B90AF92BF92CF92DF92EF92FF926B017C01F2
S1130BA09B01AC016091F3017091F4018091F50116
S1130BB09091F6010E94B30A4B015C01C092F301CB
S1130BC0D092F401E092F501F092F6012AE037EDBB
S1130BD043E25CE30E947F0C181664F020E030E0EE
S1130BE0A901C501B4010E94200B882331F083E0E0
S1130BF090E005C081E090E002C082E090E0FF90C8
S1130C00EF90DF90CF90BF90AF909F908F9008951A
S1130C108A9A8230910599F484E690E0929AEFE9F9
S1130C20FFE03197F1F700C000009298EFE9FCE88B
S1130C303197F1F700C00000019781F708950197FB
S1130C4091F484E690E0929AEFECF7E03197F1F7B3
S1130C5000C000009298EFE6F4E93197F1F700C084
S1130C600000019781F70895CF93DF9300D01F927E
S1130C70CDB7DEB7AB9A0E94F9040E942D016093B0
S1130C80F3017093F4018093F5019093F60112E45B
S1130C9006C01093650088E00E940302979A81E8D9
S1130CA00E94D1028111F5CF909165009234B9F779
S1130CB02FEF33ED40E3215030404040E1F700C0D6
S1130CC0000083E40E94990A0E945F0241E060E010
S1130CD08EE690E00E94800240E060E08EE790E0C3
S1130CE00E9480028FEF9DE329E4815090402040D0
S1130CF0E1F700C000000E945F0210E00FE040E056
S1130D00612F8FE890E00E948002602F611B41E018
S1130D1081E990E00E9480023FEF40E782E0315099
S1130D2040408040E1F700C000001F5F103139F7F8
S1130D309FEF29E638E1915020403040E1F700C0B0
S1130D4000000E945F0280916500823409F0B6C001
S1130D500F2EFFE9AF2EF0E0BF2EF02D0F2EFFE790
S1130D60EF2EF1E0FF2EF02D0F2EF3E49F2EF02D49
S1130D700E942D010FE811E022E043E00E943B0DA8
S1130D8041E060E083E990E00E94800241E066E097
S1130D90C8010E94800241E06DE08CE990E00E946D
S1130DA080020E9449049F938F93BF92AF92FF9257
S1130DB0EF920E94DC0D40E060E082EA90E00E9445
S1130DC0800240E067E0C7010E94800240E06CE0DE
S1130DD086E291E00E9480024FEF8DE399E4415056
S1130DE080409040E1F700C000000E945F0240E0B4
S1130DF064E089EA90E00E94800241E063E083EBD2
S1130E0090E00E9480022FEF33ED40E32150304008
S1130E104040E1F700C000000E945F028FEF93EDB5
S1130E2020E3815090402040E1F700C000000E9480
S1130E305F020F900F900F900F900F900F9040E073
S1130E4060E08EEB90E00E94800241E064E08FEC71
S1130E5090E00E94800282E80E94D102882359F027
S1130E60969A909265000E945F0280916500823498
S1130E7009F47ECF23C081E80E94D1028823F9F2CD
S1130E8080E00E94030295988AE090E0979A3FEFF1
S1130E9044E32CE0315040402040E1F700C0000022
S1130EA097983FEF44E32CE0315040402040E1F775
S1130EB000C00000019751F70E941C05979881E03B
S1130EC090E00E9408060F2EF9E77F2EF02D0F2EDA
S1130ED0FEE66F2EF02D0F2EF8EC8F2E912CF02DB8
S1130EE00F2EFCE3AF2EB12CF02D0FE910E0CE0154
S1130EF001967C0140E061E089ED90E00E9480026F
S1130F0041E061E086EE90E00E94800240E060E013
S1130F108FE890E00E9480027092640037C084E8F9
S1130F200E94D1028823B9F00E945F0240E061E090
S1130F3089ED90E00E94800241E061E086EE90E05D
S1130F400E94800240E060E08FE890E00E9480020E
S1130F50709264001BC088E80E94D1028823B1F01B
S1130F600E945F0240E061E089ED90E00E9480020F
S1130F7041E061E086EE90E00E94800241E060E0A2
S1130F808FE890E00E9480026092640088E10E94F1
S1130F90D102882321F20E945F0280916400893784
S1130FA059F540E060E083EF90E00E94800241E068
S1130FB060E084E091E00E94800281E10E94D1021D
S1130FC0882361F00E94A70DB4010E94F10C582EF1
S1130FD0492ECC97CD9708F078C20EC081E20E94CA
S1130FE0D1028823F1F20E94A70DB5010E94F10CF1
S1130FF06C012CE3C20ED11C809164008E3609F47E
S11310001EC10E945F02DF92CF921F930F93FF9243
S1131010EF920E94DC0D0F900F900F900F900F90A5
S11310200F90C601CC97CD9708F450C082E090E0B1
S11310300E9408063CE3C316D10484F440E066E051
S113104083E191E00E94800240E060E0CE010196DD
S11310500E9480028CE40E94990A13C049E7C416D6
S1131060D1047CF040E066E08EE191E00E948002D1
S113107040E060E0CE0101960E94800288E40E9474
S1131080990A41E060E08AE291E00E948002969A27
S11310908FEF94E32CE0815090402040E1F700C0B2
S11310A0000096983FEF44E38CE03150404080408C
S11310B0E1F700C0000081E80E94D102882309F30F
S11310C0969880E50E94990A0E941C050E942D01B1
S11310D00E94C605019789F582E090E00E94080607
S11310E040E060E089E391E00E94800283E50E9491
S11310F0990A41E060E08AE291E00E948002969AB7
S11311009FEF24E33CE0915020403040E1F700C0E1
S1131110000096984FEF84E39CE04150804090405B
S1131120E1F700C0000081E80E94D102882309F39E
S113113080E50E94990A0E941C050E942D010E94CC
S1131140C605029709F06FC00E945F0240E062E0AA
S113115086E491E00E94800241E063E083E591E04F
S11311600E9480022FEF31E14AE721503040404095
S1131170E1F700C0000082E090E00E9408068FE4DE
S11311800E94990A0E945F020AE010E035C00E94A2
S113119049044AE0BE016F5F7F4F0E94B70D809102
S11311A0780190917901B8010E94F10C892B31F4F6
S11311B041E065E0CE0101960E94800280918601A3
S11311C090918701A0918801B09189010596A11D94
S11311D0B11D8093860190938701A0938801B093F9
S11311E08901809178019091790105969093790114
S11311F0809378010E942105809178019091790172
S11312008837910524F29698959A8FEF93ED20E311
S1131210815090402040E1F700C0000082E50E9428
S1131220990A0E941C053FEF4DE389E43150404088
S11312308040E1F700C000000E945F025BCE0E9484
S113124049048C010F2EFFE9EF2EF0E0FF2EF02D64
S11312509E012F5F3F4F59016C013CE3C31AD10833
S11312601F930F93FF92EF92BF92AF920E94DC0DF7
S11312700F900F900F900F900F900F904DE3C416A6
S1131280D10408F44DC082E090E00E9408060C33BB
S1131290110584F440E066E083E191E00E9480025D
S11312A040E060E0CE0101960E9480028CE40E943E
S11312B0990A12C0093711057CF040E066E08EE11E
S11312C091E00E94800240E060E0CE0101960E941D
S11312D0800288E40E94990A41E060E08AE291E099
S11312E00E948002969A8FEF94E32CE08150904004
S11312F02040E1F700C0000096983FEF44E38CE003
S1131300315040408040E1F700C0000081E80E9475
S1131310D102882309F380E50E94990A0E941C05E2
S11313200E942D010E94C605019789F582E090E094
S11313300E94080640E060E089E391E00E94800298
S113134083E50E94990A41E060E08AE291E00E940C
S11313508002969A9FEF24E33CE091502040304075
S1131360E1F700C0000096984FEF84E39CE0415001
S113137080409040E1F700C0000081E80E94D10263
S1131380882309F380E50E94990A0E941C050E94A3
S11313902D010E94C605029709F074C00E945F02E5
S11313A040E062E086E491E00E94800241E063E074
S11313B083E591E00E9480022FEF31E14AE721505A
S11313C030404040E1F700C0000082E090E00E941D
S11313D008068FE40E94990A0E945F020AE010E066
S11313E039C00E9449044AE0BE016F5F7F4F0E94EA
S11313F0B70D8091780190917901B8010E94F10CA8
S1131400892B51F441E065E0CE0101960E948002EF
S1131410CE0101960E949D0A8091860190918701D8
S1131420A0918801B09189010596A11DB11D8093F9
S1131430860190938701A0938801B09389018091DC
S113144078019091790105969093790180937801C0
S11314500E94210580917801909179018837910546
S11314600CF4BFCF9698959A8FEF93ED20E38150BB
S113147090402040E1F700C0000082E50E94990AF4
S11314800E941C053FEF4DE389E431504040804009
S1131490E1F700C000000E945F02E2CE0E945F02FA
S11314A04F925F928FE990E09F938F93CE010196C4
S11314B09F938F930E94DC0D0F900F900F900F90CD
S11314C00F900F90C52CD42CB1CD809164008E3632
S11314D009F4B5CEE3CF2AB128692AB920B5266824
S11314E020BDDC01CB01880F991FAA1FBB1F880FE9
S11314F0991FAA1FBB1F9C01AD01220F331F441F5C
S1131500551F220F331F441F551F60E072E18AE705
S113151090E00E94050D8FEF820F89B9DA01C901AD
S11315200197A109B109892F9A2FAB2FBB2780BD41
S113153008955D9BFECF8CB908950F931F93CF93AD
S1131540FC018081882359F08F01C0E00E94990A30
S1131550CF5FF801EC0FF11D80818111F7CFCF919E
S11315601F910F9108955058BB27AA270E94CB0AB8
S11315700C94450C0E94370C38F00E943E0C20F06D
S113158039F49F3F19F426F40C94340C0EF4E095CE
S1131590E7FB0C942E0CE92F0E94560C58F3BA1753
S11315A0620773078407950720F079F4A6F50C9475
S11315B0780C0EF4E0950B2EBA2FA02D0B01B90177
S11315C090010C01CA01A0011124FF27591B99F0B5
S11315D0593F50F4503E68F11A16F040A22F232FC1
S11315E0342F4427585FF3CF469537952795A79511
S11315F0F0405395C9F77EF41F16BA0B620B730BB8
S1131600840BBAF09150A1F0FF0FBB1F661F771F28
S1131610881FC2F70EC0BA0F621F731F841F48F4DD
S1131620879577956795B795F7959E3F08F0B0CF66
S11316309395880F08F09927EE0F9795879508954D
S11316400E940A0C08F481E008950E94390B0C945E
S1131650450C0E943E0C58F00E94370C40F029F4CF
S11316605F3F29F00C942E0C51110C94790C0C94BE
S1131670340C0E94560C68F39923B1F3552391F36B
S1131680951B550BBB27AA2762177307840738F0ED
S11316909F5F5F4F220F331F441FAA1FA9F335D04A
S11316A00E2E3AF0E0E832D091505040E695001CFE
S11316B0CAF72BD0FE2F29D0660F771F881FBB1FB8
S11316C0261737074807AB07B0E809F0BB0B802D96
S11316D0BF01FF2793585F4F3AF09E3F510578F0C2
S11316E00C942E0C0C94790C5F3FE4F3983ED4F3E5
S11316F0869577956795B795F7959F5FC9F7880F96
S1131700911D9695879597F90895E1E0660F771FE7
S1131710881FBB1F621773078407BA0720F0621B78
S1131720730B840BBA0BEE1F88F7E09508950E94A3
S11317309E0B6894B1110C94790C08950E945E0C70
S113174088F09F5798F0B92F9927B751B0F0E1F07E
S1131750660F771F881F991F1AF0BA95C9F714C02E
S1131760B13091F00E94780CB1E008950C94780C9B
S1131770672F782F8827B85F39F0B93FCCF3869567
S113178077956795B395D9F73EF4909580957095C4
S113179061957F4F8F4F9F4F0895E89409C097FB41
S11317A03EF490958095709561957F4F8F4F9F4F34
S11317B09923A9F0F92F96E9BB279395F695879578
S11317C077956795B795F111F8CFFAF4BB0F11F43B
S11317D060FF1BC06F5F7F4F8F4F9F4F16C08823E2
S11317E011F096E911C0772321F09EE8872F762F18
S11317F005C0662371F096E8862F70E060E02AF059
S11318009A95660F771F881FDAF7880F9695879544
S113181097F90895990F0008550FAA0BE0E8FEEF19
S113182016161706E807F907C0F012161306E407A0
S1131830F50798F0621B730B840B950B39F40A2699
S113184061F0232B242B252B21F408950A2609F477
S1131850A140A6958FEF811D811D089597F99F677B
S113186080E870E060E008959FEF80EC0895002424
S11318700A941616170618060906089500240A94F1
S113188012161306140605060895092E0394000C77
S113189011F4882352F0BB0F40F4BF2B11F460FF06
S11318A004C06F5F7F4F8F4F9F4F089557FD90582F
S11318B0440F551F59F05F3F71F04795880F97FB10
S11318C0991F61F09F3F79F08795089512161306CA
S11318D01406551FF2CF4695F1DF08C016161706F9
S11318E01806991FF1CF869571056105089408952E
S11318F0E894BB2766277727CB0197F908950E94C0
S11319000A0C08F48FEF08950E94970C0C94450C70
S11319100E94370C38F00E943E0C20F0952311F001
S11319200C942E0C0C94340C11240C94790C0E94FD
S1131930560C70F3959FC1F3950F50E0551F629FAD
S1131940F001729FBB27F00DB11D639FAA27F00D14
S1131950B11DAA1F649F6627B00DA11D661F829F3B
S11319602227B00DA11D621F739FB00DA11D621F20
S1131970839FA00D611D221F749F3327A00D611D3D
S1131980231F849F600D211D822F762F6A2F11241F
S11319909F5750409AF0F1F088234AF0EE0FFF1F52
S11319A0BB1F661F771F881F91505040A9F79E3FA9
S11319B0510580F00C942E0C0C94790C5F3FE4F3E9
S11319C0983ED4F3869577956795B795F795E795FF
S11319D09F5FC1F7FE2B880F911D9695879597F908
S11319E0089597FB072E16F4009407D077FD09D0CD
S11319F00E94270D07FC05D03EF4909581959F4FDA
S1131A000895709561957F4F0895A1E21A2EAA1B3F
S1131A10BB1BFD010DC0AA1FBB1FEE1FFF1FA2179A
S1131A20B307E407F50720F0A21BB30BE40BF50B97
S1131A30661F771F881F991F1A9469F76095709520
S1131A40809590959B01AC01BD01CF010895AA1B1F
S1131A50BB1B51E107C0AA1FBB1FA617B70710F095
S1131A60A61BB70B881F991F5A95A9F780959095C7
S1131A70BC01CD010895EF920F931F93CF93DF9391
S1131A80E80147FD02C034E001C034E1042E000C3B
S1131A90550B57FF03C0519541955109E32E022F71
S1131AA0242FAE010E94DF0FCE01DF91CF911F9151
S1131AB00F91EF9008958F929F92AF92BF92CF9221
S1131AC0DF92EF92FF92CF93DF93EC0168817981EB
S1131AD08A819B81611571058105910521F464E278
S1131AE079ED8BE597E02DE133EF41E050E00E9482
S1131AF0D11249015A019B01AC01A7EAB1E40E9449
S1131B00F0126B017C01ACEEB4EFA50194010E94CC
S1131B10FE12DC01CB018C0D9D1DAE1DBF1DB7FF58
S1131B2003C00197A109B04888839983AA83BB8322
S1131B309F77DF91CF91FF90EF90DF90CF90BF9090
S1131B40AF909F908F9008950E945B0D089580E65A
S1131B5090E00E945B0D0895A0E0B0E080936000E7
S1131B6090936100A0936200B09363000895BB2733
S1131B704A3031F4992322F4BDE2909581959F4F28
S1131B800C94C30DBB27FB015527AA27880F991F67
S1131B90AA1FA41710F0A41B83955051B9F7A05D98
S1131BA0AA3308F0A95DA193009779F7B111B19315
S1131BB01192CB010C942712AEE0B0E0E2EEFDE00E
S1131BC00C9411130D891E8986E08C831A83098372
S1131BD08FEF9FE79E838D83AE01475E5F4F6F89D2
S1131BE0788DCE0101960E94FE0DEF81F885E00FFD
S1131BF0F11F10822E96E4E00C942D13ABE0B0E0BC
S1131C00E4E0FEE00C9403136C017B018A01FC0107
S1131C1017821682838181FFCCC1CE0101963C01DB
S1131C20F6019381F70193FD859193FF81917F01E3
S1131C30882309F4BAC1853239F493FD859193FF61
S1131C4081917F01853229F4B60190E00E94371218
S1131C50E7CF912C212C312CFFE1F315D8F08B32F6
S1131C6079F038F4803279F08332A1F4232D2061A5
S1131C701DC08D3261F0803369F4232D216016C0BC
S1131C80832D8260382EE32DE4603E2E2AC0F32D8E
S1131C90F8601DC037FC2DC020ED280F2A3040F01D
S1131CA08E32B9F436FC81C1232D2064322E19C042
S1131CB036FE06C08AE0989E200D1124922E11C093
S1131CC0EAE02E9E200D1124222EF32DF0623F2EE9
S1131CD008C08C3621F4832D8068382E02C08836E3
S1131CE041F4F70193FD859193FF81917F01811167
S1131CF0B3CF982F9F7D9554933028F40C5F1F4FDA
S1131D009FE399830DC0833631F0833771F08335B7
S1131D1009F059C021C0F801808189830E5F1F4FEB
S1131D2088248394912C530113C02801F2E04F0EB0
S1131D30511CF801A080B18036FE03C0692D70E00B
S1131D4002C06FEF7FEFC5010E941C124C0182019B
S1131D50F32DFF773F2E16C0280122E0420E511CBE
S1131D60F801A080B18036FE03C0692D70E002C086
S1131D706FEF7FEFC5010E9411124C01F32DF06843
S1131D803F2E820133FC1BC0822D90E088169906F9
S1131D90B0F4B60180E290E00E9437122A94F4CFA6
S1131DA0F50137FC859137FE81915F01B60190E022
S1131DB00E94371221102A9421E0821A910881147A
S1131DC0910471F7E8C0843611F0893641F5F801C1
S1131DD037FE07C060817181828193810C5F1F4F40
S1131DE008C060817181072E000C880B990B0E5F6F
S1131DF01F4FF32DFF763F2E97FF09C090958095D6
S1131E00709561957F4F8F4F9F4FF0683F2E2AE06A
S1131E1030E0A3010E947312882E861845C08537CE
S1131E2031F4232D2F7EB22E2AE030E025C0932DED
S1131E30997FB92E8F36C1F018F4883579F0B5C082
S1131E40803719F0883721F0B0C0E92FE061BE2E49
S1131E50B4FE0DC0FB2DF460BF2E09C034FE0AC0D1
S1131E60292F2660B22E06C028E030E005C020E10C
S1131E7030E002C020E132E0F801B7FE07C0608123
S1131E807181828193810C5F1F4F06C060817181D3
S1131E9080E090E00E5F1F4FA3010E947312882E12
S1131EA08618FB2DFF773F2E36FE0DC0232D2E7F87
S1131EB0A22E891458F434FE0BC032FC09C0832DC1
S1131EC08E7EA82E05C0B82CA32C03C0B82C01C04C
S1131ED0B92CA4FE0FC0FE01E80DF11D80818033F2
S1131EE021F49A2D997EA92E09C0A2FE06C0B394AE
S1131EF0B39404C08A2D867809F0B394A3FC11C06E
S1131F00A0FE06C0B21488F4280C922C9B180EC0B4
S1131F10B21460F4B60180E290E00E943712B394E8
S1131F20F7CFB21418F42B1802C0982C212CA4FE5D
S1131F3010C0B60180E390E00E943712A2FE17C0E1
S1131F40A1FC03C088E790E002C088E590E0B601F8
S1131F500CC08A2D867859F0A1FE02C08BE201C024
S1131F6080E2A7FC8DE2B60190E00E94371289144A
S1131F7038F4B60180E390E00E9437129A94F7CFC8
S1131F808A94F301E80DF11D8081B60190E00E946E
S1131F9037128110F5CF222009F442CEB60180E237
S1131FA090E00E9437122A94F6CFF6018681978139
S1131FB002C08FEF9FEF2B96E2E10C941F13A9E070
S1131FC0B0E0E5EEFFE00C9409136A01122FB02E85
S1131FD02BE3201720F0FF24F394F00E02C02CE32F
S1131FE0F22E0F2D27E0AE014F5F5F4F0E94391193
S1131FF0BC014981842F8970813031F0E1FC06C035
S1132000E0FE06C090E205C09DE203C09BE201C071
S113201090E05E2D507143FF3CC0911102C083E0FB
S113202001C084E0811718F4212F281B01C020E08F
S113203051110BC0F601822F30E2882319F031933D
S11320408150FBCFC20ED11C20E0992329F0D60188
S11320509C93F60131966F01C6010396E2FE0AC015
S11320603EE4D6013C9341E411964C9311971296A9
S11320703C9306C03EE6F601308341E64183328359
S1132080FC01322F40E2332309F442C04193315022
S1132090FACF42FF44C0911102C083E001C084E042
S11320A0811718F4212F281B01C020E051110BC007
S11320B0F601822F30E2882319F031938150FBCF4F
S11320C0C20ED11C20E0992329F0D6019C93F6017D
S11320D031966F01C6010396E2FE0BC039E4D601C6
S11320E03C933EE411963C93119736E412963C934C
S11320F007C039E6F60130833EE6318336E63283A3
S1132100FC01322F40E2332319F041933150FBCFCD
S1132110FC01E20FF11D10828EEF9FEFA6C021E0BB
S113212030E0911102C020E030E0161617061CF4CE
S1132130FB01319602C0E1E0F0E02E0F3F1FBB200F
S113214021F0EB2DF0E0319602C0E0E0F0E02E0F3C
S11321503F1FE12FF0E02E173F071CF4121B212F25
S113216001C020E08E2D887159F4F601822F30E2EF
S1132170882319F031938150FBCFC20ED11C20E08B
S1132180992329F0D6019C93F60131966F015111E0
S11321900BC0F601822F90E3882319F091938150AC
S11321A0FBCFC20ED11C20E00F2D060F9A81342FD5
S11321B0307144FF03C0913309F40150101624F424
S11321C0093018F008E001C001E0AB0177FF02C05C
S11321D040E050E0FB01E41BF50BA1E0B0E0AC0FE4
S11321E0BD1FEA0FFB1F8EE2A82E4B01801A910837
S11321F00B2D10E01195019511094F3FBFEF5B07BF
S113220021F4D601AC9211966D01641775072CF078
S11322108416950614F4818101C080E3415051096C
S11322203196D60111967D014017510724F0D6014D
S11322308C936701E2CF6417750739F4963320F461
S1132240953319F4311101C081E3F6018083F7015C
S1132250822F90E2882319F091938150FBCFF701EC
S1132260E20FF11D108280E090E02996ECE00C94DE
S11322702513283008F027E03327DA01990F311DA0
S113228087FD916000966105710539F432602E5F17
S11322903D9330E32A95E1F708959F3F30F080386D
S11322A07105610509F03C5F3C5F3D93913008F096
S11322B08068911DDF93CF931F930F93FF92EF924A
S11322C0192F987F9695E92F96959695E90FFF27F4
S11322D0E255FF4F99273327EE24FF24A701E70196
S11322E005900894079428F4360FE71EF81E491F3A
S11322F0511D660F771F881F991F0694A1F705903B
S1132300079428F4E70EF81E491F561FC11D770FC6
S1132310881F991F661F0694A1F70590079428F457
S1132320F80E491F561FC71FD11D880F991F661F1E
S1132330771F0694A1F70590079420F4490F561FC0
S1132340C71FD81F990F661F771F881F0694A9F708
S113235084911095177041F0D695C7955795479578
S1132360F794E7941A95C1F7E4E5F0E068941590C2
S1132370159135916591959105907FE27395E118DA
S1132380F10A430B560BC90BD009C0F7E10CF11E3F
S1132390431F561FC91FD01D7EF4703311F48A9554
S11323A0E6CFE894015030F0080F0AF40027021732
S11323B008F4202F2395022F7A3328F079E37D93B4
S11323C02A95E9F710C07D932A9589F60694979586
S11323D06795379517951794E118F10A430B560B37
S11323E0C90BD00998F023957E9173957A3308F040
S11323F070E37C932013B8F77E9170617D9330F085
S1132400839571E37D9370E32A95E1F71124EF90AE
S1132410FF900F911F91CF91DF91992787FD9095A0
S11324200895FC010590615070400110D8F7809523
S113243090958E0F9F1F0895FC016150704001908C
S11324400110D8F7809590958E0F9F1F0895DC0199
S1132450FC01672F71917723E1F7329704C07C91D7
S11324606D9370836291AE17BF07C8F308950F93FD
S11324701F93CF93DF93FB01238121FD03C08FEFD3
S11324809FEF2CC022FF16C04681578124813581DD
S11324904217530744F4A081B1819D012F5F3F4F40
S11324A0318320838C93268137812F5F3F4F37837D
S11324B0268314C08B01EC01FB010084F185E02D1F
S11324C00995892BE1F6D80116968D919C91179761
S11324D0019617969C938E931697CE01DF91CF9118
S11324E01F910F910895FA01AA27283051F1203144
S11324F081F1E8946F936E7F6E5F7F4F8F4F9F4F94
S1132500AF4FB1E03ED0B4E03CD0670F781F891FD5
S11325109A1FA11D680F791F8A1F911DA11D6A0FA3
S1132520711D811D911DA11D20D009F468943F9156
S11325302AE0269F11243019305D3193DEF6CF0155
S11325400895462F4770405D4193B3E00FD0C9F71B
S1132550F6CF462F4F70405D4A3318F0495D31FD88
S11325604052419302D0A9F7EACFB4E0A6959795DB
S1132570879577956795BA95C9F7009761057105B1
S113258008959B01AC010A2E0694579547953795FB
S11325902795BA95C9F7620F731F841F951FA01D55
S11325A00895052E97FB1EF400940E94E81257FD2F
S11325B007D00E94050D07FC03D04EF40C94E812DA
S11325C050954095309521953F4F4F4F5F4F08955B
S11325D090958095709561957F4F8F4F9F4F08958B
S11325E00E943A13A59F900DB49F900DA49F800D57
S11325F0911D11240895B7FF0C94F0120E94F0125B
S1132600821B930B08952F923F924F925F926F9289
S11326107F928F929F92AF92BF92CF92DF92EF926E
S1132620FF920F931F93CF93DF93CDB7DEB7CA1BEF
S1132630DB0B0FB6F894DEBF0FBECDBF09942A881A
S1132640398848885F846E847D848C849B84AA84C2
S1132650B984C884DF80EE80FD800C811B81AA814F
S1132660B981CE0FD11D0FB6F894DEBF0FBECDBF1A
S1132670ED010895A29FB001B39FC001A39F700D07
S1132680811D1124911DB29F700D811D1124911D76
S10926900895F894FFCF49
S1132696010000006B4154696D65203A20004D65C8
S11326A661737572696E672050756C7365004D654C
S11326B661737572696E6720576569676874003E51
S11326C6003C005765696768743A20006B6700250B
S11326D6640048726174653A005265616479204603
S11326E66F72004D656469636174696F6E00507240
S11326F665737320427574746F6E20466F7200544E
S1132706726561746D656E74004D616E75616C20E1
S1132716496E70757400416E616C6F6720496E7006
S1132726757400313D3E41626E6F726D616C20526C
S113273661746500323D3E4E6F726D616C2052616C
S11327467465002D3E20204C6F7742504D002D3E7F
S113275620204869676842504D00526573657420AD
S113276653797374656D203F005370656564205614
S11327766172696564004348454D4F544845524566
S1112786505900464C554944204F56455200C8
S9030000FC
