S01700004763634170706C69636174696F6E312E737265635B
S11300000C94A7000C94C4000C94C4000C94C40079
S11300100C94C4000C94C4000C94C4000C94C4004C
S11300200C94C4000C94C4000C94C4000C94C4003C
S11300300C94C4000C94C4000C94C4000C94C4002C
S11300400C94C4000C94C4000C94C4000C94C4001C
S11300500C94C40000407A10F35A00A0724E1809A0
S11300600010A5D4E80000E87648170000E40B541B
S1130070020000CA9A3B000000E1F50500008096EA
S11300809800000040420F000000A086010000001C
S1130090102700000000E8030000000064000000D6
S11300A000000A00000000000100000000002C769F
S11300B0D888DC674F0823DFC1DFAE59E1B1B796BA
S11300C0E5E3E453C63AE651997696E8E6C2842617
S11300D0EB898C9B62ED407C6FFCEFBC9C9F40F2F3
S11300E0BAA56FA5F490055A2AF75C936B6CF9676F
S11300F06DC11BFCE0E40D47FEF520E6B500D0ED34
S1130100902E0300943577050080841E080000209B
S11301104E0A000000C80C333333330F986E128339
S11301201141EF8D2114893BE65516CFFEE6DB180D
S1130130D1844B381BF77C1D901DA4BBE4242032D2
S113014084725E228100C9F124ECA1E53D271124CB
S11301501FBECFE5D8E0DEBFCDBF10E0A0E6B0E023
S1130160ECEBFEE002C005900D92AC37B107D9F775
S113017020E0ACE7B0E001C01D92A638B207E1F779
S11301800E9470020C945C070C9400009F99FECFAF
S113019088E140E050E0BA01AE9A0000440F551FD8
S11301A0661F771FAE9800009F9B04C04F5F5F4F90
S11301B06F4F7F4F815081F7689415F87695679556
S11301C0579547951694D1F7CB01BA0180582091E1
S11301D08400222349F020E0AE9A0000AE982F5FFD
S11301E0309184002317C0F30895CF92DF92EF92E9
S11301F0FF920E94C6000E94E0036B017C016091A3
S11302007C0070917D0080917E0090917F000E941F
S1130210E2039B01AC01C701B6010E94FC02FF90FE
S1130220EF90DF90CF9008950E94F5002091800018
S11302303091810040918200509183000E946E03AE
S113024008958038910521F481E08093840010C0E2
S11302508034910521F483E08093840009C0809761
S113026021F482E08093840003C081E080938400C1
S1130270AE980E94C6000895CF92DF92EF92FF924B
S11302806B017C0120E030E040E85FE30E946903F9
S1130290882344F40F2EC12CD12CF0E8EF2EFFE379
S11302A0FF2EF02DC0928000D0928100E092820057
S11302B0F0928300FF90EF90DF90CF9008958F929B
S11302C09F92AF92BF92CF92DF92EF92FF920F93E1
S11302D01F934A015B0168017901A69AAE98A79819
S11302E090E00E942101C501B4010E943C01C0922A
S11302F07C00D0927D00E0927E00F0927F001F91FE
S11303000F91FF90EF90DF90CF90BF90AF909F90B0
S11303108F900895CF93DF93C82F8EE40E94CB0271
S1130320DC2FD07F8091850084608D2B0E94EF02AA
S113033089EF90E00197F1F700C0000080918500FB
S11303408D2B0E94EF0289EF90E00197F1F700C036
S1130350000090E1C99FE001112480918500846030
S11303608C2B0E94EF0289EF90E00197F1F700C017
S11303700000809185008C2B0E94EF0289EF90E0B1
S11303800197F1F700C000000E94E902DF91CF91CC
S11303900895CF93C82F8EE40E94CB02C07F809132
S11303A0850084608C2B0E94EF0289EF90E0019716
S11303B0F1F700C00000809185008C2B0E94EF02B1
S11303C089EF90E00197F1F700C000000E94E90274
S11303D0CF9108958093850080E30E94C90180E352
S11303E00E94C90180E30E94C90180E20E94C90100
S11303F087E893E10197F1F700C0000088E20E94CA
S11304008A018CE00E948A0186E00E948A0181E0D0
S11304100E948A010895CF93DF93C82F8EE40E942F
S1130420CB02DC2FD07F80918500D82B8D2F856067
S11304300E94EF02DA7F809185008D2B0E94EF02EB
S113044080E1C89F90011124C0918500C560C22B32
S11304508C2F0E94EF022C2F2A7F80918500822B03
S11304600E94EF020E94E902DF91CF910895623069
S113047031F0633031F0613029F4805C03C08C5E6C
S113048001C08C5A80680E948A0108951F93CF93FB
S1130490DF93EC0110E007C0FE01E80FF91F808133
S11304A00E940B021F5F812F90E0FE01019000204B
S11304B0E9F73197EC1BFD0B8E179F0768F3DF916B
S11304C0CF911F910895CF93DF93EC01862F642F72
S11304D00E943702CE010E944602DF91CF91089517
S11304E0CF93DF93CDB7DEB7C456D1090FB6F894D6
S11304F0DEBF0FBECDBF88E00E94EA017894009170
S1130500640010916500209166003091670040916D
S1130510600050916100609162007091630080916D
S113052068000E945F010E94C6002AE0AE014F5F8E
S11305305F4F0E94B20440E060E089E690E00E94D0
S1130540630240E066E0CE0101960E9463020E94CD
S113055014018E010F5F1F4F22E043E00E949204BA
S113056041E060E080E790E00E94630241E066E0E1
S1130570C8010E94630241E06DE089E790E00E94B7
S113058063022FE38DE093E0215080409040E1F737
S113059000C00000C8CF94EA96BF06B607FEFDCFA0
S11305A091B1987F983011F0903179F483B984E84F
S11305B086BF06B607FEFDCF91B1987F983139F01A
S11305C081E0903429F480E0089581E0089580E08A
S11305D0089584E986BF06B604FCFDCF089583B967
S11305E084E886BF06B607FEFDCF91B1987F81E00F
S11305F0983209F480E008955058BB27AA270E9436
S113060014030C9458040E944A0438F00E945104C4
S113061020F039F49F3F19F426F40C9447040EF4A7
S1130620E095E7FB0C944104E92F0E94690458F318
S1130630BA17620773078407950720F079F4A6F5C3
S11306400C948B040EF4E0950B2EBA2FA02D0B0105
S1130650B90190010C01CA01A0011124FF27591B03
S113066099F0593F50F4503E68F11A16F040A22F09
S1130670232F342F4427585FF3CF4695379527957A
S1130680A795F0405395C9F77EF41F16BA0B620B79
S1130690730B840BBAF09150A1F0FF0FBB1F661FC0
S11306A0771F881FC2F70EC0BA0F621F731F841F03
S11306B048F4879577956795B795F7959E3F08F029
S11306C0B0CF9395880F08F09927EE0F97958795EB
S11306D008950E941D0408F481E008950E94820395
S11306E00C9458040E94510458F00E944A0440F0AB
S11306F029F45F3F29F00C94410451110C948C04AB
S11307000C9447040E94690468F39923B1F35523B8
S113071091F3951B550BBB27AA2762177307840710
S113072038F09F5F5F4F220F331F441FAA1FA9F3A6
S113073035D00E2E3AF0E0E832D091505040E69594
S1130740001CCAF72BD0FE2F29D0660F771F881FF5
S1130750BB1F261737074807AB07B0E809F0BB0BE8
S1130760802DBF01FF2793585F4F3AF09E3F5105FC
S113077078F00C9441040C948C045F3FE4F3983EAD
S1130780D4F3869577956795B795F7959F5FC9F7E5
S1130790880F911D9695879597F90895E1E0660F66
S11307A0771F881FBB1F621773078407BA0720F0DF
S11307B0621B730B840BBA0BEE1F88F7E095089548
S11307C0E89409C097FB3EF49095809570956195E7
S11307D07F4F8F4F9F4F9923A9F0F92F96E9BB279D
S11307E09395F695879577956795B795F111F8CF19
S11307F0FAF4BB0F11F460FF1BC06F5F7F4F8F4F84
S11308009F4F16C0882311F096E911C0772321F079
S11308109EE8872F762F05C0662371F096E8862F11
S113082070E060E02AF09A95660F771F881FDAF768
S1130830880F9695879597F90895990F0008550F95
S1130840AA0BE0E8FEEF16161706E807F907C0F052
S113085012161306E407F50798F0621B730B840B5A
S1130860950B39F40A2661F0232B242B252B21F434
S113087008950A2609F4A140A6958FEF811D811DD4
S1130880089597F99F6780E870E060E008959FEF0E
S113089080EC089500240A94161617061806090613
S11308A0089500240A9412161306140605060895E2
S11308B0092E0394000C11F4882352F0BB0F40F46A
S11308C0BF2B11F460FF04C06F5F7F4F8F4F9F4FAA
S11308D0089557FD9058440F551F59F05F3F71F02C
S11308E04795880F97FB991F61F09F3F79F0879593
S11308F00895121613061406551FF2CF4695F1DF1C
S113090008C0161617061806991FF1CF86957105AB
S1130910610508940895E894BB2766277727CB01DF
S113092097F90895EF920F931F93CF93DF93E80104
S113093047FD02C034E001C034E1042E000C550B25
S113094057FF03C0519541955109E32E022F242FDF
S1130950AE010E94E304CE01DF91CF911F910F916C
S1130960EF900895BB272A3051F4992342F4BDE255
S113097090958095709561957F4F8F4F9F4F0C9404
S1130980C204BB27FA01A62F6217710581059105E0
S1130990330B30FB66F0AA27660F771F881F991F59
S11309A0AA1FA21710F0A21B63953850A9F7A05DE7
S11309B0AA3308F0A95DA19336F7B111B19310825F
S11309C0CA010C941507A9E0B0E0E9EEF4E00C9438
S11309D02B076A01122FB02E2BE3201720F0FF24DF
S11309E0F394F00E02C02CE3F22E0F2D27E0AE019B
S11309F04F5F5F4F0E943D06BC014981842F89707F
S1130A00813031F0E1FC06C0E0FE06C090E205C092
S1130A109DE203C09BE201C090E05E2D507143FF54
S1130A203CC0911102C083E001C084E0811718F436
S1130A30212F281B01C020E051110BC0F601822F89
S1130A4030E2882319F031938150FBCFC20ED11CC0
S1130A5020E0992329F0D6019C93F60131966F0189
S1130A60C6010396E2FE0AC03EE4D6013C9341E48B
S1130A7011964C93119712963C9306C03EE6F601EC
S1130A80308341E641833283FC01322F40E2332339
S1130A9009F442C041933150FACF42FF44C091114E
S1130AA002C083E001C084E0811718F4212F281BC1
S1130AB001C020E051110BC0F601822F30E28823DF
S1130AC019F031938150FBCFC20ED11C20E0992341
S1130AD029F0D6019C93F60131966F01C601039665
S1130AE0E2FE0BC039E4D6013C933EE411963C93FC
S1130AF0119736E412963C9307C039E6F601308329
S1130B003EE6318336E63283FC01322F40E2332362
S1130B1019F041933150FBCFFC01E20FF11D10821B
S1130B208EEF9FEFA6C021E030E0911102C020E0DB
S1130B3030E0161617061CF4FB01319602C0E1E002
S1130B40F0E02E0F3F1FBB2021F0EB2DF0E031969B
S1130B5002C0E0E0F0E02E0F3F1FE12FF0E02E177F
S1130B603F071CF4121B212F01C020E08E2D887139
S1130B7059F4F601822F30E2882319F03193815021
S1130B80FBCFC20ED11C20E0992329F0D6019C93FF
S1130B90F60131966F0151110BC0F601822F90E3DB
S1130BA0882319F091938150FBCFC20ED11C20E011
S1130BB00F2D060F9A81342F307144FF03C09133F7
S1130BC009F40150101624F4093018F008E001C0AB
S1130BD001E0AB0177FF02C040E050E0FB01E41B01
S1130BE0F50BA1E0B0E0AC0FBD1FEA0FFB1F8EE2D6
S1130BF0A82E4B01801A91080B2D10E01195019538
S1130C0011094F3FBFEF5B0721F4D601AC92119657
S1130C106D01641775072CF08416950614F4818110
S1130C2001C080E3415051093196D60111967D01EE
S1130C304017510724F0D6018C936701E2CF641763
S1130C40750739F4963320F4953319F4311101C042
S1130C5081E3F6018083F701822F90E2882319F063
S1130C6091938150FBCFF701E20FF11D108280E0D8
S1130C7090E02996ECE00C944707283008F027E030
S1130C803327DA01990F311D87FD916000966105C4
S1130C90710539F432602E5F3D9330E32A95E1F714
S1130CA008959F3F30F080387105610509F03C5F7D
S1130CB03C5F3D93913008F08068911DDF93CF93A2
S1130CC01F930F93FF92EF92192F987F9695E92F18
S1130CD096959695E90FFF27E255FF4F99273327FD
S1130CE0EE24FF24A701E70105900894079428F453
S1130CF0360FE71EF81E491F511D660F771F881F08
S1130D00991F0694A1F70590079428F4E70EF81E9E
S1130D10491F561FC11D770F881F991F661F069410
S1130D20A1F70590079428F4F80E491F561FC71F12
S1130D30D11D880F991F661F771F0694A1F7059090
S1130D40079420F4490F561FC71FD81F990F661F19
S1130D50771F881F0694A9F784911095177041F0A6
S1130D60D695C79557954795F794E7941A95C1F783
S1130D70E4E5F0E0689415901591359165919591AD
S1130D8005907FE27395E118F10A430B560BC90BEA
S1130D90D009C0F7E10CF11E431F561FC91FD01D17
S1130DA07EF4703311F48A95E6CFE894015030F064
S1130DB0080F0AF40027021708F4202F2395022FA6
S1130DC07A3328F079E37D932A95E9F710C07D936F
S1130DD02A9589F6069497956795379517951794EC
S1130DE0E118F10A430B560BC90BD00998F023956F
S1130DF07E9173957A3308F070E37C932013B8F7EF
S1130E007E9170617D9330F0839571E37D9370E3FF
S1130E102A95E1F71124EF90FF900F911F91CF9144
S1130E20DF91992787FD90950895DC01FC01672FD8
S1130E3071917723E1F7329704C07C916D937083AD
S1130E406291AE17BF07C8F308952F923F924F9255
S1130E505F926F927F928F929F92AF92BF92CF9246
S1130E60DF92EF92FF920F931F93CF93DF93CDB74F
S1130E70DEB7CA1BDB0B0FB6F894DEBF0FBECDBFC7
S1130E8009942A88398848885F846E847D848C8498
S1130E909B84AA84B984C884DF80EE80FD800C81A1
S1130EA01B81AA81B981CE0FD11D0FB6F894DEBF84
S10F0EB00FBECDBFED010895F894FFCFF4
S1130EBCA6D54345AC05800080526561643A200098
S10F0ECC5765696768743A20006B670082
S9030000FC
